:020000040800F2
:10000000E00A002029020008991C0008AF1B000824
:10001000951C000873040008551F0008000000002C
:10002000000000000000000000000000D51E0008D5
:1000300077040008000000009D1C0008D71E00087F
:10004000430200084302000843020008430200087C
:10005000430200084302000843020008430200086C
:10006000430200084302000843020008430200085C
:10007000430200084302000843020008430200084C
:10008000430200084302000843020008430200083C
:10009000430200084302000843020008430200082C
:1000A000430200084302000843020008430200081C
:1000B000430200084302000843020008430200080C
:1000C00043020008430200084302000843020008FC
:1000D00043020008430200084302000843020008EC
:1000E0004302000843020008430200080000000029
:1000F0000000000000000000000000000000000000
:1001000000000000000000000000000043020008A2
:1001100043020008430200084302000800000000F8
:10012000430200084302000843020008430200089B
:100130004302000800000000000000000000000072
:100140004302000843020008000000000000000015
:10015000000000000000000000000000000000009F
:1001600000000000000000004302000843020008F5
:100170004302000800000000000000000000000032
:10018000000000004302000800F002F800F03CF814
:100190000AA090E8000C82448344AAF10107DA45E2
:1001A00001D100F031F8AFF2090EBAE80F0013F0F8
:1001B000010F18BFFB1A43F001031847E87501004F
:1001C00008760100103A24BF78C878C1FAD85207DF
:1001D00024BF30C830C144BF04680C6070470000C1
:1001E0000023002400250026103A28BF78C1FBD840
:1001F000520728BF30C148BF0B6070471FB502F0DF
:10020000AFFA1FBD10B510BD00F003F91146FFF79E
:10021000F5FF02F0B9F900F0EAF803B4FFF7F2FFD6
:1002200003BC00F01FF90000094880470948004757
:10023000FEE7FEE7FEE7FEE7FEE7FEE7FEE7FEE796
:10024000FEE7FEE704480549054A064B70470000F3
:10025000411F000889010008E0040020E00A002096
:10026000E0060020E006002053EA020C00F069805E
:100270002DE9F04B4FF00006002B1FBFB3FA83F5BA
:1002800003FA05F424FA05F65E4012BF1643B2FAEB
:1002900082F502FA05F4C5F120051EBF22FA05FC1D
:1002A00044EA0C04203556EA044C4FEA144418BFC3
:1002B000641C4FF000084FF00009904271EB030CF2
:1002C00039D3002919BFB1FA81F701FA07F6B0FA5C
:1002D00080F700FA07F6C7F120071EBF20FA07FCD7
:1002E00046EA0C062037B6FBF4FCA7EB0507103FE7
:1002F00007F01F0BCBF120060CFA0BFB2CFA06F6CD
:1003000044BFB3460026202FA4BF5E464FF0000B2B
:100310005BEA060C08BF4FF0010B19EB0B09ABFBB6
:10032000027C48EB0608C01B06FB02CC0BFB03CC8F
:1003300071EB0C01C1E70B46024641464846BDE859
:10034000F08B13B54FF000004FF00001AFF30080C9
:10035000BDE81C4070474FF000020429C0F0128035
:1003600010F0030C00F01B80CCF1040CBCF1020F68
:1003700018BF00F8012BA8BF20F8022BA1EB0C013D
:1003800000F00DB85FEAC17C24BF00F8012B00F833
:10039000012B48BF00F8012B70474FF0000200B559
:1003A000134694469646203922BFA0E80C50A0E898
:1003B0000C50B1F12001BFF4F7AF090728BFA0E846
:1003C0000C5048BF0CC05DF804EB890028BF40F812
:1003D000042B08BF704748BF20F8022B11F0804F54
:1003E00018BF00F8012B704770477047704710B571
:1003F0000446AFF300802046BDE81040FFF70DBF74
:100400005202580F0240141003521C1C1C1C1C1CCE
:100410001C1C754600F022F8AE460500694653469E
:1004200020F00700854618B020B5FFF70BFFBDE8A8
:1004300020404FF000064FF000074FF000084FF04B
:10044000000B21F00701AC46ACE8C009ACE8C009DC
:10045000ACE8C009ACE8C0098D4670470048704759
:100460007C04002001491820ABBEFEE726000200F4
:10047000704700BFFEE7704772B600BFFEE700009E
:1004800070B5044600F0F4F806462546681C10B125
:1004900004480078054400BF00F0EAF8801BA84239
:1004A000FAD370BD0800002078B503460A46002143
:1004B000C4E001268E40156805EA0604002C73D0BE
:1004C000157905F00305012D04D0157905F0030514
:1004D000022D13D198684E000325B540A8434E0065
:1004E000D568B54028439860586801258D40A843D9
:1004F0001579C5F300158D4028435860157905F02E
:100500000305032D09D0D8684E000325B540A84344
:100510004E009568B5402843D860157905F003056D
:10052000022D13D1CE0803F1200555F826004D0702
:10053000EE0E0F25B540A8434E07F60E1569B540DF
:100540002843CE0803F1200545F8260018684E0020
:100550000325B540A843157905F003054E00B540C5
:1005600028431860556805F44035002D65D000BF5C
:10057000354DAD6945F00105334EB5613546AD6980
:1005800005F00105009500BF00BF4FEAB6358E08A3
:1005900055F826008D072E0F0F25B540A843B3F15F
:1005A000904F02D1002515E047E0284DAB4201D124
:1005B00001250FE0264DAB4201D102250AE0254D71
:1005C000AB4201D1032505E0234DAB4201D1042507
:1005D00000E005258E07360FB54028431F4D8E08D5
:1005E00045F826001E4D2868A043556805F480355F
:1005F00005B120431A4D28602D1D2868A043556879
:1006000005F4003505B12043154D2D1D28602D1D25
:100610002868A043556805F4801505B12043104DA6
:10062000083528602D1D2868A043556805F400157D
:1006300005B120430A4D0C352860491C1568CD4092
:10064000002D7FF436AF78BD001002400004004852
:1006500000080048000C0048001000480800014055
:10066000000401400AB1816100E08162704700002E
:10067000014800687047000000000020034800683F
:1006800003490978084401490860704700000020C8
:100690000800002010B50848006840F01000064926
:1006A0000860032000F08EF80F2000F007F800F03B
:1006B0002BF8002010BD00000020024070B5044659
:1006C0000E4800784FF47A71B1FBF0F00C490968DC
:1006D000B1FBF0F5284601F050FA08B1012070BDD9
:1006E000102C07D200222146501E00F02DF805489C
:1006F000046001E00120F2E70020F0E7080000209C
:100700000C0000200400002008B500BF0D488069DF
:1007100040F001000B4988610846806900F0010043
:10072000009000BF00BF00BF0846C06940F0805085
:10073000C8610846C06900F08050009000BF00BF4B
:1007400008BD0000001002402DE9F05F80460D4614
:100750001646002701F000FC074639462A46334674
:1007600001F00700C0F1070ABAF1040F02D94FF0F7
:10077000040A01E0C0F1070AD14600F1040ABAF107
:10078000070F02D24FF0000A01E0A0F1030AD4469D
:100790004FF0010A0AFA09FAAAF1010A0AEA020A62
:1007A0000AFA0CFA4FF0010B0BFA0CFBABF1010B40
:1007B0000BEA030B4AEA0B042146404601F0D4FB46
:1007C000BDE8F09F00BF00F00702064B19684FF626
:1007D000FF031940044B0B4343EA0221014B19600C
:1007E00000BF70470CED00E00000FA0570B504464C
:1007F0000D4600260CB9012070BDA248006800F02B
:100800000700A8420ED29F48006820F00700284346
:100810009C4908600846006800F00700A84201D023
:100820000120E9E7207800F00200022807D196486D
:10083000406820F0F000A1680843934948602078A0
:1008400000F0010000287CD0606801283BD1202006
:10085000010391FAA1F1B1FA81F108430121B1EB51
:10086000601F02D1884800681DE02020010391FA32
:10087000A1F1B1FA81F108430221B1EB601F02D16D
:100880008148006A0FE02020010391FAA1F1B1FA3A
:1008900081F108430421B1EB601F02D17A4840681E
:1008A00001E07948406A20210A0392FAA2F2B2FAE2
:1008B00082F2114301F01F020121914008400028FB
:1008C0007CD1012098E7606802283BD120200105F7
:1008D00091FAA1F1B1FA81F108430121B1EB601F56
:1008E00002D1694800681DE02020010591FAA1F1BC
:1008F000B1FA81F108430221B1EB601F02D16248D5
:10090000006A0FE02020010591FAA1F1B1FA81F10E
:1009100008430421B1EB601F02D15B48406801E04D
:100920005948406A20210A0592FAA2F2B2FA82F2EC
:10093000114301F01F02012191400840E8BB012052
:100940005AE758E02020022191FAA1F1B1FA81F191
:1009500008430121B1EB601F02D14B4800681DE044
:100960002020022191FAA1F1B1FA81F1084302217C
:10097000B1EB601F02D14448006A0FE02020022141
:1009800091FAA1F1B1FA81F108430421B1EB601FA2
:1009900002D13D48406801E03B48406A20210222E4
:1009A00092FAA2F2B2FA82F2114301F01F0201217F
:1009B0009140084008B901201EE7FFE7324840682F
:1009C00020F00300616808432F494860FFF750FE9C
:1009D000064608E0FFF74CFE801B41F28831884252
:1009E00001D9032008E72848406800F00C0061683E
:1009F000B0EB810FEED12348006800F00700A84259
:100A00000ED92048006820F0070028431D490860DF
:100A10000846006800F00700A84201D00120EBE67C
:100A2000207800F00400042807D11748406820F41B
:100A3000E060E168084314494860207800F008004D
:100A4000082808D11048406820F46050216940EA25
:100A5000C1000D49486000F01FF80B49496801F0DA
:100A6000F001F02292FAA2F2B2FA82F2D140074AE1
:100A7000515CC8400649086006480068FFF71EFE42
:100A80000020B9E600200240001002408A2700083A
:100A90000C000020040000202DE9F0410024002576
:100AA00000270026A0461F48446804F00C0078B3D5
:100AB000042802D008282CD102E0DFF86C802CE05A
:100AC00004F470104FF4701191FAA1F1B1FA81F1B0
:100AD000C84016490E5C1348C06A00F00F000F2191
:100AE00091FAA1F1B1FA81F1C84011490D5C04F409
:100AF000803040B12A4600230B481946FFF7B4FB6B
:100B0000A0FB067102E00B48A0FB0671B84604E0AA
:100B100000E000BFDFF8108000BF00BF4046BDE826
:100B2000F08100000010024000127A006A270008DD
:100B30007A27000800093D00F8B504460CB90120E9
:100B4000F8BD207800F0010000287BD0FA4840680A
:100B500000F00C0004280CD0F748406800F00C00AE
:100B6000082845D1F448406800F48030B0F5803F53
:100B70003ED12020010391FAA1F1B1FA81F108439D
:100B80000121B1EB601F02D1EB4800681DE020207D
:100B9000010391FAA1F1B1FA81F108430221B1EB0D
:100BA000601F02D1E448006A0FE02020010391FA9F
:100BB000A1F1B1FA81F108430421B1EB601F02D128
:100BC000DD48406801E0DC48406A20210A0392FACF
:100BD000A2F2B2FA82F2114301F01F020121914008
:100BE00008400028B1D0606800282BD10120A7E779
:100BF00000BF6068B0F5803F06D1CF48006840F480
:100C00008030CD49086029E0606858B9CA4800685A
:100C100020F48030C84908600846006820F480202D
:100C200008601BE06068B0F5A02F0CD1C2480068D6
:100C300040F48020C04908600846006840F48030D5
:100C400008600BE0A1E0BC48006820F48030BA499D
:100C500008600846006820F48020086000BFB6489D
:100C6000C06A20F00F00A1680843B349C8626068F9
:100C7000A0B3FFF7FDFC054606E0FFF7F9FC401BBB
:100C8000642801D903205BE72020010391FAA1F138
:100C9000B1FA81F108430121B1EB601F02D1A648EE
:100CA00000681EE02020010391FAA1F1B1FA81F160
:100CB00008430221B1EB601F02D19F48006A10E097
:100CC0002020010391FAA1F1B1FA81F10843042136
:100CD000B1EB601F03D19848406802E010E09648ED
:100CE000406A20210A0392FAA2F2B2FA82F2114378
:100CF00001F01F020121914008400028BDD044E0CE
:100D0000FFF7B6FC054606E0FFF7B2FC401B64287F
:100D100001D9032014E72020010391FAA1F1B1FACF
:100D200081F108430121B1EB601F02D182480068C4
:100D30001DE02020010391FAA1F1B1FA81F10843ED
:100D40000221B1EB601F02D17B48006A0FE0202036
:100D5000010391FAA1F1B1FA81F108430421B1EB49
:100D6000601F02D17448406801E07348406A202146
:100D70000A0392FAA2F2B2FA82F2114301F01F02C0
:100D80000121914008400028BED1207800F00200E7
:100D900002285CD16848406800F00C0050B16648F9
:100DA000406800F00C00082852D16348406800F405
:100DB0008030E8BB2020022191FAA1F1B1FA81F143
:100DC00008430121B1EB601F02D15B4800681DE0C0
:100DD0002020022191FAA1F1B1FA81F10843022108
:100DE000B1EB601F02D15448006A0FE020200221BD
:100DF00091FAA1F1B1FA81F108430421B1EB601F2E
:100E000002D14D48406801E04B48406A202102224F
:100E100092FAA2F2B2FA82F2114301F01F0201210A
:100E20009140084028B12069012802D0012087E6BE
:100E30000EE04148006820F0F800F82292FAA2F291
:100E4000B2FA82F26169914008433B490860B1E01F
:100E5000206970B3012191FAA1F0B0FA80F0374A0D
:100E600042F82010FFF704FC054606E0FFF700FCFF
:100E7000401B022801D9032062E62020022191FABA
:100E8000A1F1B1FA81F108430121B1EB601F02D158
:100E9000294800681EE02020022191FAA1F1B1FA50
:100EA00081F108430221B1EB601F03D12248006A9F
:100EB00010E02CE02020022191FAA1F1B1FA81F199
:100EC00008430421B1EB601F02D11B48406801E0D8
:100ED0001948406A2021022292FAA2F2B2FA82F262
:100EE000114301F01F020121914008400028BDD0AC
:100EF0001148006820F0F800F82292FAA2F2B2FA43
:100F000082F26169914008430B49086052E0002079
:100F1000012191FAA1F1B1FA81F1084A42F82100C8
:100F2000FFF7A6FB05460BE0FFF7A2FB401B0228DC
:100F300006D9032004E600000010024000004242EF
:100F40002020022191FAA1F1B1FA81F10843012197
:100F5000B1EB601F02D1FB4800681DE02020022198
:100F600091FAA1F1B1FA81F108430221B1EB601FBE
:100F700002D1F448006A0FE02020022191FAA1F189
:100F8000B1FA81F108430421B1EB601F02D1ED48B1
:100F9000406801E0EB48406A2021022292FAA2F266
:100FA000B2FA82F2114301F01F0201219140084080
:100FB0000028B9D1207800F00800082851D1A06994
:100FC00080B3012191FAA1F0B0FA80F0DE4A02EB81
:100FD0008000C0F88014FFF74BFB054606E0FFF7E2
:100FE00047FB401B022801D90320A9E5602002210C
:100FF00091FAA1F1B1FA81F108430121B1EB601F2F
:1010000002D1D04800681EE06020022191FAA1F1CF
:10101000B1FA81F108430221B1EB601F03D1C94845
:10102000006A10E01EE06020022191FAA1F1B1FAFD
:1010300081F108430421B1EB601F02D1C14840682F
:1010400001E0C048406A6021022292FAA2F2B2FA9C
:1010500082F2114301F01F02012191400840002853
:10106000BDD04FE00020012191FAA1F1B1FA81F148
:10107000B54A02EB8101C1F88004FFF7F9FA054691
:1010800006E0FFF7F5FA401B022801D9032057E5D7
:101090006020022191FAA1F1B1FA81F10843012106
:1010A000B1EB601F02D1A74800681DE0602002215B
:1010B00091FAA1F1B1FA81F108430221B1EB601F6D
:1010C00002D1A048006A0FE06020022191FAA1F14C
:1010D000B1FA81F108430421B1EB601F02D19948B4
:1010E000406801E09748406A6021022292FAA2F229
:1010F000B2FA82F2114301F01F020121914008402F
:101100000028BED1207800F00400042873D1002705
:101110008C48C06900F0805070B900BF8948C06930
:1011200040F080508749C8610846C06900F080508F
:10113000009000BF00BF01278448006800F4807061
:10114000B0B98248006840F4807080490860FFF7B9
:101150008FFA054606E0FFF78BFA401B642801D999
:101160000320EDE47948006800F480700028F2D094
:1011700000BFE068012806D17248006A40F0010013
:101180007049086227E0E06858B96E48006A20F0AC
:1011900001006C4908620846006A20F004000862F9
:1011A00019E0E06805280BD16648006A40F00400A9
:1011B000644908620846006A40F0010008620AE0DB
:1011C0006048006A20F001005E4908620846006A33
:1011D00020F00400086200BFE068B8B3FFF748FAE7
:1011E000054609E0FFF744FA401B41F28831884286
:1011F00002D90320A4E48BE04020022191FAA1F15E
:10120000B1FA81F108430121B1EB601F02D14D48D1
:1012100000681EE04020022191FAA1F1B1FA81F1AB
:1012200008430221B1EB601F02D14648006A10E07A
:101230004020022191FAA1F1B1FA81F10843042181
:10124000B1EB601F03D13F48406802E010E03D4829
:10125000406A4021022292FAA2F2B2FA82F21143CB
:1012600001F01F020121914008400028BAD046E059
:10127000FFF7FEF9054608E0FFF7FAF9401B41F2D7
:101280008831884201D903205AE44020022191FA92
:10129000A1F1B1FA81F108430121B1EB601F02D144
:1012A000284800681DE04020022191FAA1F1B1FA1E
:1012B00081F108430221B1EB601F02D12148006A8D
:1012C0000FE04020022191FAA1F1B1FA81F1084327
:1012D0000421B1EB601F02D11A48406801E01948AF
:1012E000406A4021022292FAA2F2B2FA82F211433B
:1012F00001F01F020121914008400028BCD1012FBC
:1013000005D11048C06920F080500E49C86100BF67
:10131000E069002874D00B48406800F00C000828F1
:101320006FD0E06902286DD100204FF0807191FAF2
:10133000A1F1B1FA81F1044A42F82100FFF798F9CE
:1013400005460CE0001002400000424200700040E0
:10135000FFF78EF9401B022801D9032047E4202023
:10136000010591FAA1F1B1FA81F108430121B1EB34
:10137000601F02D1774800681DE02020010591FA26
:10138000A1F1B1FA81F108430221B1EB601F02D152
:101390007048006A0FE02020010591FAA1F1B1FA2E
:1013A00081F108430421B1EB601F02D16948406814
:1013B00001E06848406A20210A0592FAA2F2B2FAD6
:1013C00082F2114301F01F020121914008400028E0
:1013D000BED1D4E9081008435E49496821F474116C
:1013E00008435C4948600120010691FAA1F1B1FA75
:1013F00081F1594A42F82100FFF73AF9054609E020
:10140000A5E092E041E0FFF733F9401B022801D943
:10141000032038E42020010591FAA1F1B1FA81F10D
:1014200008430121B1EB601F02D14A4800681DE06A
:101430002020010591FAA1F1B1FA81F108430221BE
:10144000B1EB601F02D14348006A0FE02020010584
:1014500091FAA1F1B1FA81F108430421B1EB601FC7
:1014600002D13C48406801E03A48406A20210A0520
:1014700092FAA2F2B2FA82F2114301F01F020121A4
:10148000914008400028BED061E000204FF08071FC
:1014900091FAA1F1B1FA81F12F4A42F82100FFF748
:1014A000E7F8054606E0FFF7E3F8401B022801D9FC
:1014B00003202FE42020010591FAA1F1B1FA81F176
:1014C00008430121B1EB601F02D1224800681DE0F2
:1014D0002020010591FAA1F1B1FA81F1084302211E
:1014E000B1EB601F02D11B48006A0FE0202001050C
:1014F00091FAA1F1B1FA81F108430421B1EB601F27
:1015000002D11448406801E01248406A20210A05CF
:1015100092FAA2F2B2FA82F2114301F01F02012103
:10152000914008400028BED111E0E069012800D1B7
:101530007DE40848466806F48031206A814204D17F
:1015400006F47011606A814201D001206FE400202E
:101550006DE40000001002400000424270B50446F5
:101560000CB9012070BD606A38B96068B0F5827F3F
:1015700000D105E00021E16102E00021216161610B
:101580000021A16294F85D0028B9002084F85C0075
:10159000204600F061F8022084F85D0020680068B1
:1015A00020F0400021680860E068B0F5E06F01D9E4
:1015B000002501E04FF48055E068B0F5706F05D06C
:1015C000E068B0F5E06F01D00021A162A08800F4CE
:1015D0008270218901F404410843217C01F0020159
:1015E0000843217D01F001010843218B01F40071C2
:1015F0000843217F01F0380108432021095D01F0F3
:1016000080010843218D01F40051084321680860DE
:101610000421A06901EA104094F8241001F010019F
:10162000084394F8341001F008010843A18901F43B
:101630007061084305F480510843216848602068C0
:10164000C06920F400602168C86100202066012084
:1016500084F85D00002085E710B586B004461421AB
:1016600001A8FEF79AFE18492068884229D100BFD8
:101670001648C06940F480401449C8610846C069F2
:1016800000F48040009000BF00BF00BF08464069E2
:1016900040F4802048610846406900F480200090B2
:1016A00000BF00BF4FF46040019002200290002074
:1016B0000390032004900520059001A90448FEF73B
:1016C000F3FE06B010BD00000038004000100240DC
:1016D000000400482DE9F84F0446884616461D468A
:1016E0004FF0000A00BF94F85C00012802D10220EC
:1016F000BDE8F88F012084F85C0000BFFEF7B8FF5A
:101700000746B14694F85D00012802D04FF0020A66
:10171000CBE0B8F1000F00D016B94FF0010AC4E0D9
:10172000032084F85D0000202066C4F83880A68776
:10173000E6872064A4F84400A4F846002065E0642D
:10174000A068B0F5004F0BD12068006820F0400081
:10175000216808602068006840F4804021680860C3
:101760002068006800F04000402805D0206800682C
:1017700040F0400021680860E068B0F5E06F2FD9C4
:10178000606810B1B9F1010F09D1A06B0088216820
:10179000C860A06B801CA063E08F401EE0871BE048
:1017A0002068806800F0020002280AD1A06B00883F
:1017B0002168C860A06B801CA063E08F401EE0879A
:1017C0000AE0FEF755FFC01BA84201D3681C00B910
:1017D00015B94FF0030A68E0E08F0028E0D14AE035
:1017E000606810B1B9F1010F17D1E08F01280AD953
:1017F000A06B00882168C860A06B801CA063E08F8C
:10180000801EE08709E0A06B007821680873A06B58
:10181000401CA063E08F401EE08729E020688068BC
:1018200000F00200022818D1E08F01280AD9A06B2D
:1018300000882168C860A06B801CA063E08F801EB8
:10184000E08715E0A06B007821680873A06B401C4E
:10185000A063E08F401EE0870AE0FEF709FFC01B8F
:10186000A84201D3681C00B915B94FF0030A1CE067
:10187000E08F0028D2D13A462946204600F00FFAE0
:1018800008B120202066A06850B900BF0020009059
:101890002068C068009020688068009000BF00BF8A
:1018A000206E08B14FF0010A00BF012084F85D00EE
:1018B00000BF002084F85C0000BF504618E72DE907
:1018C000FF5F0446894692461D460E9E0120019008
:1018D0000020009000BF94F85C00012803D1022092
:1018E00004B0BDE8F09F012084F85C0000BFFEF763
:1018F000BFFE074694F85D00029060680390A8461A
:10190000AB46029801280BD00398B0F5827F04D132
:10191000A06810B90298042802D00220009022E1A9
:10192000B9F1000F03D0BAF1000F00D015B90120B2
:10193000009018E194F85D00042802D0052084F896
:101940005D0000202066C4F840A0A4F84650A4F82A
:101950004450C4F83890E587A587E0642065E068C6
:10196000B0F5E06F02D8BBF1010F06D920684068DE
:1019700020F480502168486005E02068406840F409
:101980008050216848602068006800F040004028CE
:1019900005D02068006840F0400021680860E068D9
:1019A000B0F5E06F4ED9606810B1B8F1010F09D100
:1019B000A06B00882168C860A06B801CA063E08FCA
:1019C000401EE08736E02068806800F002000228B0
:1019D00010D1E08F70B1019801280BD1A06B008865
:1019E0002168C860A06B801CA063E08F401EE08768
:1019F000002001902068806800F0010080B1B4F8F8
:101A0000460068B12068C068216C0880206C801C8A
:101A10002064B4F84600401EA4F84600012001905E
:101A2000FEF726FEC01BB04204D3701C10B1032089
:101A3000009098E0E08F0028C5D1B4F84600002857
:101A4000C1D185E0606810B1B8F1010F17D1E08F06
:101A500001280AD9A06B00882168C860A06B801C8F
:101A6000A063E08F801EE08709E0A06B007821680A
:101A70000873A06B401CA063E08F401EE08760E00D
:101A80002068806800F0020002281ED1E08FE0B1DB
:101A90000198012819D1E08F01280AD9A06B00888C
:101AA0002168C860A06B801CA063E08F801EE08767
:101AB00009E0A06B007821680873A06B401CA0634C
:101AC000E08F401EE087002001902068806800F0D1
:101AD000010058B3B4F8460040B3B4F846000128FA
:101AE00016D92068C068216C0880206C801C206496
:101AF000B4F84600801EA4F84600B4F84600012859
:101B000012D82068406840F48050216848600BE09B
:101B10002068007B216C0870206C401C2064B4F8A5
:101B20004600401EA4F8460001200190FEF7A0FDEB
:101B3000C01BB04201D3701C00B916B9032000903D
:101B400011E0E08F00289BD1B4F84600002897D11F
:101B50003A463146204600F0A2F818B10120009024
:101B60002020206600BF012084F85D0000BF002017
:101B700084F85C0000BF0098B2E670B504462546C4
:101B8000681EB0F1807F01D301200FE0681E4FF086
:101B9000E02148610F214FF0FF3000F0E5F900200F
:101BA0004FF0E021886107200861002070BD00BF70
:101BB000FEE7000000B587B0142102A8FEF7EDFB98
:101BC00000BF1E48406940F400301C494861084687
:101BD000406900F40030019000BF00BF00BF08461C
:101BE000406940F4802048610846406900F4802044
:101BF000019000BF00BF0022C0214FF09040FEF7CF
:101C000031FD002201210E48FEF72CFDC02002907C
:101C10000120039000200490059002A94FF090400D
:101C2000FEF742FC012002900390002004900590F2
:101C300002A90348FEF738FC07B000BD00100240BF
:101C40000004004810B51148114908604FF4827033
:101C5000486000210E4881604FF44071C16000214E
:101C6000016141614FF4007181610021C161016234
:101C7000416281620721C162002101630821416341
:101C8000FFF76CFC08B1FEF7F7FB10BD0038004011
:101C90001000002000BFFEE700BFFEE77047F8B568
:101CA00004460E461546334600224FF4C0512046E6
:101CB000009500F027F828B1206E40F02000206643
:101CC0000320F8BD3346002280212046009500F015
:101CD00095F828B1206E40F0200020660320F0E740
:101CE000334600224FF4C0612046009500F00AF808
:101CF00028B1206E40F0200020660320E1E700209C
:101D0000DFE700002DE9FC5F04460D4616461F463E
:101D1000DDF8309000200090FEF7AAFCA0EB09004F
:101D2000A7EB0008FEF7A4FC8246206800F10C0B2C
:101D300031480068C0EBC00000EB8000000D00FBE4
:101D400008F0019050E0B5F5C06F05D126B99BF8B9
:101D5000000000909DF80000781C002844D0FEF799
:101D600087FCA0EB0A00404502D2B8F1000F34D145
:101D70002068406820F0E000216848606068B0F5A5
:101D8000827F0DD1A068B0F5004F03D0A068B0F5F8
:101D9000806F05D12068006820F04000216808604D
:101DA000A06AB0F5005F0DD100BF2068006820F484
:101DB0000050216808602068006840F400502168E5
:101DC000086000BF012084F85D0000BF002084F897
:101DD0005C0000BF0320BDE8FC9F019808B94FF0EC
:101DE00000080198401E0190206880682840B04299
:101DF000A9D10020EFE700000C0000202DE9F84FEA
:101E000004460D4690461E46DDF82890FEF730FC4D
:101E1000A0EB0900371AFEF72BFC82462C4800681D
:101E2000C0F3CB307843009045E0701C002842D0CE
:101E3000FEF71EFCA0EB0A00B84200D2A7BB206848
:101E4000406820F0E000216848606068B0F5827F5B
:101E50000DD1A068B0F5004F03D0A068B0F5806F39
:101E600005D12068006820F0400021680860A06A61
:101E7000B0F5005F0DD100BF2068006820F400506D
:101E8000216808602068006840F4005021680860FC
:101E900000BF012084F85D0000BF002084F85C00D2
:101EA00000BF0320BDE8F88FFFE7009800B90027C6
:101EB0000098401E0090206880682840A84201D108
:101EC000012000E000204045AFD10020EAE70000FB
:101ED0000C000020704710B5FEF7D0FB10BD00B518
:101EE0008FB0282105A8FEF758FA14216846FEF79E
:101EF00054FA022005900120099010200A90022037
:101F00000C9000210D914FF460110E9105A8FEF781
:101F100013FE08B1FEF7B0FA0F20009002200190E6
:101F2000002002904FF48060039000200490022172
:101F30006846FEF75BFC08B1FEF79EFA0FB000BDE5
:101F40000348006840F470000149086070470000D1
:101F500088ED00E000BFFEE702480068C0F3022001
:101F6000704700000CED00E010B5002804DB0A0704
:101F7000130E054A135406E00A07140E034A00F034
:101F80000F031B1FD45410BD00E400E018ED00E067
:101F9000F8B504460D464FF482711948FEF7FDF975
:101FA0004FF482711748FEF7F8F9032015490870BD
:101FB000200C4870200A8870CC7000224FF48051A9
:101FC0001148FEF74FFB4FF0FF304FF482730C4A7D
:101FD0000C4900900D48FFF772FC064601221103E0
:101FE0000948FEF73FFB002005E0054A011D515C52
:101FF0002954411C88B2FF28F7DD3046F8BD0000A7
:102000007400002078010020000400481000002027
:10201000704710B5FFF7FCFF00F06CF900F0DEF838
:1020200010BD00002DE9FF4105460E464FF00008A7
:102030004FF482713C48FEF7B0F94FF482713B488F
:10204000FEF7ABF9022039490870280C4870280ABD
:102050008870CD70042404E0307834490855761C2B
:10206000641CB4F5827FF7D301222F49062000F0CB
:10207000C7F9074600208DF809000FE01420FEF78D
:10208000FFF902A9284800F07EF80746641CC82C16
:1020900004D10027002004B0BDE8F0819DF80900BC
:1020A0000028EBD0002400224FF480512048FEF796
:1020B000D9FA631E4FF482721C491E48FFF70AFBCF
:1020C0000746012211031A48FEF7CCFA01208DF8C9
:1020D00008000CE01420FEF7D3F902A9124800F022
:1020E00052F80746641CC82C01D10020D3E79DF8A4
:1020F00008000028EED1002402A90B4800F043F8A4
:1021000007466946084800F017F8074647B99DF8A2
:10211000050028B99DF8040010B94FF0010801E04E
:102120004FF000084046B6E7740000207801002018
:10213000000400481000002070B504460D4602223D
:1021400021462B2000F05CF90646D6B96078C0091C
:10215000A8716078C0F3801068716078C0F3401097
:1021600028716078C0F3C000E8706078C0F3800028
:10217000A8706078C0F340006870607800F00100DB
:102180002870304670BD70B504460D4602222146C7
:10219000052000F035F90646F6B96078C009E87107
:1021A0006078C0F38010A8716078C0F34010687147
:1021B0006078C0F3001028716078C0F3C000E87048
:1021C0006078C0F38000A8706078C0F34000687049
:1021D000607800F001002870304670BD10B5012213
:1021E0000949062000F00CF9002409E01420FEF74C
:1021F00047F901220449F52000F002F9601CC4B23D
:102200000A2CF3DB10BD0000740000202DE9FF4113
:1022100004460026002501223249062000F0F0F88D
:10222000074600208DF8090010E00520FEF728F988
:1022300002A92C48FFF7A7FF0746681CC5B2C82DA6
:1022400004D10027002004B0BDE8F0819DF809000A
:102250000028EAD00025202023490870200C48706F
:10226000200A8870CC7000224FF480511F48FEF77E
:10227000F9F96B1E04221C491D48FFF72BFA07468B
:10228000012211031948FEF7EDF901208DF808002D
:102290000DE00520FEF7F4F802A91248FFF773FFDE
:1022A0000746681CC5B2C82D01D10020CBE79DF8B8
:1022B00008000128EDD0002502A90A48FFF763FFB6
:1022C000074669460748FFF737FF07463FB99DF8BD
:1022D000050020B99DF8040008B9012600E0002699
:1022E0003046B0E774000020780100200004004868
:1022F0001000002000B587B0142102A8FEF74DF8A9
:1023000000BF3B48C06940F480403949C861084675
:10231000C06900F48040019000BF00BF35483649D5
:10232000086000BF3248406940F48020304948616D
:102330000846406900F48020019000BF00BF4FF4C0
:10234000005002900220039000200490032005908A
:102350000520069002A92948FEF7A6F84FF4804010
:102360000290022003900020049003200590052095
:10237000069002A92148FEF797F84FF4004002901A
:102380000220039000200490032005900520069071
:1023900002A91A48FEF788F84FF4805002900120F5
:1023A000039004900320059002A91448FEF77CF8DE
:1023B0004FF482701049486000210F4881604FF44B
:1023C000E061C1600021016141614FF480218161C0
:1023D0001821C16100210162416281620A21C1624A
:1023E000FFF7BCF808B1FEF747F807B000BD0000E2
:1023F0000010024000380040100000200004004897
:1024000077B581B00C4615464FF482712046FDF732
:10241000A2FF00224FF480510A48FEF723F94FF43F
:10242000FA702B46224601A900900748FFF747FAA9
:102430000646012211030348FEF714F9304604B0A2
:1024400070BD0000000400481000002010B50446D4
:10245000082C16D2DFE804F00416283A4C5E70828D
:10246000012211464748FEF7FDF8012280214FF076
:102470009040FEF7F7F8012240214FF09040FEF720
:10248000F1F87DE0002201213E48FEF7EBF8012241
:1024900080214FF09040FEF7E5F8012240214FF0F7
:1024A0009040FEF7DFF86BE0012211463548FEF759
:1024B000D9F8002280214FF09040FEF7D3F8012296
:1024C00040214FF09040FEF7CDF859E0012211462F
:1024D0002C48FEF7C7F8012280214FF09040FEF70C
:1024E000C1F8002240214FF09040FEF7BBF847E0D2
:1024F000002201212348FEF7B5F8002280214FF089
:102500009040FEF7AFF8012240214FF09040FEF7D7
:10251000A9F835E0002201211A48FEF7A3F80022AD
:1025200080214FF09040FEF79DF8002240214FF0AF
:102530009040FEF797F823E0002201211148FEF7B2
:1025400091F8012280214FF09040FEF78BF8002295
:1025500040214FF09040FEF785F811E0012211462E
:102560000848FEF77FF8002280214FF09040FEF7E8
:1025700079F8002240214FF09040FEF773F800BF39
:1025800000BF10BD00040048FEF784F8FFF7A7FC69
:10259000FFF710FBFFF756FB052000F094F800F062
:1025A0008EF800F027F805281AD100F05FF802280D
:1025B0000FD100F08FF8042803D1022000F083F837
:1025C00015E000F087F8032811D1012000F07BF816
:1025D0000DE000F04BF8012809D100F074F806E096
:1025E00000F008F8062802D1042000F06CF800BFC3
:1025F000FEE7000070B5002416E01949204600F0FF
:1026000048F800200BE02118164A515C144A125C6D
:10261000914201D0052504E00625411C88B2FF281F
:10262000F1DD00BF04F58074B4F5A83FE5D3062DB5
:1026300014D10B494FF4AA3000F02BF800200AE027
:102640000949095C064A125C914201D0052504E063
:102650000625411C88B2FF28F2DD00BF284670BD68
:102660007C030020A22700080004000870B50024A5
:1026700009E0204600F01DF8012801D0012505E001
:10268000022504F58054B4F5003FF2D300BF28467C
:1026900070BD70B504460D4629462046FFF778FC0C
:1026A00070BD70B504460D4629462046FFF7BAFCBA
:1026B00070BD10B504462046FFF7A8FD10BD10B54B
:1026C000FFF7A7FC10BD10B504462046FFF7BEFE7D
:1026D00010BD000070B500241BE01E480119204603
:1026E000FFF7DFFF1C492046FFF7D3FF00200BE078
:1026F0002118184A515C184A125C914201D00325F6
:1027000004E00425411C88B20128F1DB00BF04F578
:102710008074B4F5A83FE0D3042D19D10F494FF4CC
:10272000AA30FFF7BEFF0C494FF4AA30FFF7B1FF04
:1027300000200AE00949095C074A125C914201D075
:10274000032504E00425411C88B21228F2D300BFFF
:10275000284670BDA22700087C0300200004000862
:102760004FF04070E1EE100A7047020304050607BF
:1027700008090A0B0C0D0E0F1010010203040506C8
:102780000708090A0B0C0D0E0F10000000000000D6
:10279000000001020304060708090000000001020E
:1027A0000304E0040768E0040F28E0040968E0641B
:1027B0001AA8E0040EE8E0040EE8E0040EE8E004E5
:1027C0000EE8E0643E28E06801E8E06804E8E068BC
:1027D0000B28E0681408E0682708E0682AE8E06849
:1027E0002E68E0683548E0683868E0040E48E00488
:1027F0000E28E0040E08E0040DE8E0040DC8E00433
:102800000DA8000000000000000000000000000013
:1028100000000000000000000000000000000000B8
:1028200000000000000000000000000000000000A8
:102830000000000000000000000000000000000098
:102840000000000000000000000000000000000088
:1030800000000000000000000000C1C30000F802C2
:103090000006C1C381011E06A10B1A0681009923F7
:1030A000E10097B397E3062C97730634E2C0062C31
:1030B000FC80C183E340E2C0061CFC980634FC9C03
:1030C0000634E340061C6938C183C143E800C1C32C
:1030D0008105E100000CFA045E65EC100CF0F41CB4
:1030E0005E60BC6E8861FF8407FC9A14D804E430EB
:1030F0000460FC124C06E0D04C4AC1C38215C1C327
:10310000C1C3F804170C81938183E2C00C2C1C8C82
:10311000D167E36BE404E56B8E058060118812D8FB
:10312000E76BE96B8060EB6B8AC580601408185808
:10313000ED6BF16B8060806015281678F36BF56B92
:103140008060F76B8AC5F96B8C05FB6B8C450C0AAC
:103150008A458A65E4B4E4B80C0A187884454006C8
:10316000E060404AFC1280D5E0D0C1C3C1C31F0C4F
:10317000C1C30FFCF004BCF4F784C153FD64E080CC
:10318000000CE080000CE080000CE080000CE0808F
:10319000000CE080000CE080000CE080000CE0807F
:1031A000000CE080000CE080000CE080000CC1C34B
:1031B000C143C1C3C153FAFC040C600006DA0A2003
:1031C000A10B183064000E24E400020A37800C06BC
:1031D0008000083420000A70B7805842A40481613E
:1031E0003298212BAA45060A8CBB0C100000040063
:1031F000E400181A6400A825E0000804A11D0E14BC
:1032000057801006D780044040000854C4044C7214
:10321000768010C4D2A0144076800E64A48012245C
:10322000F680A16B76803C0154808C8B400004803A
:103230000890DC004870849B28A3EC040EA09EE557
:10324000A07D964B217B0E8A86450E9AE5000006EE
:10325000448016A0800008542C84C000289C2001C3
:103260000E4A0054400000C4A8ACC000289D0F9C2A
:1032700014544002885B80CB99A861840084E18467
:103280000894128401CB324FE0FCE4041C704B0A1A
:1032900001A158DA841094BB64006D84401A1C703C
:1032A000C61F00C424080E54A084085421FC400208
:1032B000A084A1EB399C3C005800BC004A401D5A38
:1032C00008C50EE0E0040DCBEC04E1FC00A44B0AC1
:1032D00042B758FA840808C4641810A4E0FC400AF5
:1032E000608420BFED8C005490AB14846184280F5F
:1032F0009C809194482213B04A624C50C3C7805BB3
:103300001C0027F04ED89C004440960B211D57808E
:1033100004A4D78002B440000606C4040420528CE2
:1033200042124010946B4C205C00801BDC000C0CA3
:103330008C0BDD93F2FC8C1B7FC5806B7FA5967B8D
:1033400073E5FA3C040C81C1210B0000020AA08540
:10335000986B76800A140824A12B060A76800C0448
:103360008000988B7680061A1EC51834E000A11BD9
:103370007680A4800E403C014EC00860C0004850DA
:103380000480A873DC00EC040A709AC5A05D90CBA1
:10339000215B0A8A86450A9AE50008064480107077
:1033A00080000A4A2C84C0002000289508340C2490
:1033B000400008248F94182428A0C000289419984D
:1033C0004842883B982B61840814E0FC0C1461840B
:1033D00018042CCF893BE41046DA0430450AE40493
:1033E00012506D84401A125081C10C2424080834F4
:1033F000A1FC0A2420844842A084A19B39983C0067
:103400004640BC004450135A186B88C5E004EC04D5
:103410000E9046FA033B450AE4040A2404001034E3
:10342000E184C26760FC60841CC4ED8C400A618446
:10343000083410C4B05F9CCB61FC5002306F441262
:103440009188883B138C1C00422040808A2B18E412
:103450001C004FD89C80180BA7EC0C0C8C1BDD9328
:10346000F23C826B00CB75F5FF95C1C3905BFAFC13
:10347000040C808B210B0000020A046B829B80E508
:10348000867B060AA12B400A800080E5E59C841B10
:1034900081210C0C840BDD93F2FC6800418800BB99
:1034A000841B02AB900B41188E1B007BE80040D8B8
:1034B000920B8C1B680044B2813142A2F08C8623AF
:1034C000F29C42127D85C1C3F280E6864A0EE70671
:1034D000580E6606460EE1C008546786440EE0C0EA
:1034E00000C402C460578A03E1C0F29042125D93A7
:1034F0008603F2884212E50004CAC17C0214DC0093
:103500004010848004CACC800420C9080014C17C07
:1035100002148000045AAD88061420010606000437
:10352000C0000214898840028908DD93998CE50067
:1035300004CAC0000206C0000006848004CACC8011
:103540000420C9880014C00002068000045AAD8817
:103550000614200106060004C000021489884002F7
:103560008988DD93998C8141610B06148A25E11BC2
:10357000768076800404088581410630A4330404F3
:103580006C04A03DE184A13B86E5C88C0214640470
:103590001830E408431A24081830A08402140AC022
:1035A00021CB195AEC048245E004C247401D1C801F
:1035B00008449184400227FC4A985D93C3177FE535
:1035C000880B7D55804BC1C3883BFA00040C8111E8
:1035D000006BE8045068E19841C600158004A11B07
:1035E000E03CDC384208680457E8C1C38C0BFA049D
:1035F000047C746D060E08CEC010C010746D882552
:10360000893DCD14CD04050ACD244A00E0808425EF
:10361000F00CE4000A3A6001009804208000C11612
:10362000EC04F80C004A0420FE65E92DEC10FE8540
:10363000C11EE00404CA8000454845C8C116FBF518
:1036400087FCE194008661910286801EC000811192
:103650009B0181318121E8044AA88C45A10B746942
:10366000468E080EC010C010746D8A45893DCD1479
:10367000CD04050ACD244A00E0808625F00CF00C2C
:103680004C10E4184A5AE4000A3AA00001286001EC
:1036900000A8C5508000EC040420004AC156FE4535
:1036A000F80C0420C554E92DEC10FE65C15EE00461
:1036B00004CA80004588C156C55087FC4588070666
:1036C000FB6508F0E1908C4EE430E19C0D86E19CB6
:1036D0000F8682458F6D023AD9140068E40080009D
:1036E0006001FC3842088161FF650186E16B4C088E
:1036F000E19C8B04DC38FE248914E8687128E19C85
:103700000D86E19C0F8682458F6D023AD9140068C0
:10371000E40080006001FC3842087578FF650C7C8D
:10372000EFFCDD93F2048055A11B0A0083114006D3
:10373000E550404AFC12D7F4E0D0C1C382B5C1C302
:10374000C1C3F4040B3FF4040B2FF4040B1FF40467
:103750000B0F0A508135405AEC404406E0BC446AE5
:10376000BC22404AA090C0002089ED88401A200168
:1037700001980AFFC000C1C3F404C1C3C1C3F4046B
:103780000BF5F4040BE5F4040BD5F4040BC5F404B9
:103790000BB5F4040BA5F4040B95F4040B850AFF98
:1037A00081550A50F404D7E4EC80D7B4D7D4D79429
:1037B000D7A4D774D784820B9464FA005C08E10024
:1037C000000CF83C044CE440048A212B80A58215AF
:1037D000803B461281F5064AF98082B5F80C042038
:1037E000803B044AEC04C548E4004588CD460C4CB7
:1037F00087FCDD93F03C6C400A204927E1C104209E
:103800008ACF06C06C04044AE440481264000033C6
:10381000F08C0275806B0285F0100295F80C02A501
:10382000F8084C75F8044C85F0104C95F80C4CA534
:10383000F8084408F804445287F8E92DF1B00A204A
:103840008695C5276C1061880E54EC040C20640426
:103850001870E4000C4A047444C74242E088867B36
:1038600070B0DD8ED18487FC4D8871884452A12BC5
:103870009833F7E5ECF5881B212BF7A5EC75E100F3
:10388000000CF804040C780C000A8225803B94A5F7
:10389000A12B04204D16064AEC04FE25F80C909549
:1038A000E92D7A800814E440048AE0A00A44085410
:1038B000A85F06F5E0C00C24AA4F0A20619061C100
:1038C000EC40EC040C600C4A0ACF4E32E400862B2C
:1038D00070B0E4400670F0104445F80C4445F80818
:1038E0004445F804444587FC4C08F1B044528695A1
:1038F000E92DF9C107514A52A4530453FAB0EC1010
:1039000004200E2408514557E188E40418706C0423
:103910000C50E0880A7464000C4ADD4E867B87FCFC
:103920004DC8AA2344C7A12B983304208205044A1A
:10393000EC04CD16E40087FC45C8F0040C0CC1C3B0
:10394000DD93FE7C040C044A007B4072E0101EF004
:103950007988000CED20001A6200110EF80C1B0E85
:10396000828B200100265E05C00040002035233EEA
:10397000EF8D5E17A40B9D2EE0FC2388A10E002482
:10398000C000C41B6188C03B7D417A104212FA100E
:1039900046328413003382113E1E82317C3E002069
:1039A000191E973EEC040084FE0EAF8B6184540A0E
:1039B000158E2EA5E68A00808EA3108A6C04400A1C
:1039C000E4A45672E68A40707080A2B5DC000084E0
:1039D0000FBE23B4E18CE68A4C0A60840064F09840
:1039E00050728E030D0E8E0B0B0E5608901B138E0D
:1039F000FC380B84809B901B900BFC385608829DF2
:103A0000FF11A00D82850E0B84D5A324901BFC38DA
:103A100044088E0B210D81C582858275A10D901BF6
:103A20000E0B4408A324210DFC3880458E0B930E09
:103A3000900B50A22C0B2364F198F09856A2900B97
:103A40000B0E4C08941B009BFC3809BE940B4C08D1
:103A5000961BFF11FC3882A5829D84D5A00D900B8A
:103A600009648C1BA324FC38440801D5A10D9C00DB
:103A700050608255A10D900B09A4941BA324FC381F
:103A800044088055A10D8FB490AB8D148B94969300
:103A9000A364718440B28D0E921BFC384C08920BCB
:103AA000008B4C08961BFF11FC3882C5828DA00D3F
:103AB00015840D648615A324961B44088C0BA10D58
:103AC000FC384CB001E515849C008275A10D961B55
:103AD0000D648C0BA324FC3844088095A10D8CBB8D
:103AE0000135930492BB941B23644C08930E009BF6
:103AF000FC38961B940BFC384C08829DFF11A00DDE
:103B0000828513A484D5A324961B4408940BA10D8D
:103B1000FC3881D582A58275A10D961B13648C0B90
:103B2000A324FC3844085660A10D96AB9C00002AE3
:103B30009B040118E00080004001E0FC1E07171400
:103B40008435024A8E0B8024E400C13EA834430829
:103B5000E92E830587FCA8149C04A80E9C1E19144A
:103B600081B5024A8E0B8028E400C136A83843088C
:103B7000E9261D1487FCEC040080500A8161407224
:103B800066861B0EF0840E8380AB90BB809B8CD529
:103B9000D6AD8E1B140B4408A324A00DFC38A10B3A
:103BA0008AF59D049205A10B8DB5C0401E05012824
:103BB00088D580004001E0FC1E0717248455961B21
:103BC000900BE400044A80448434C13EC54E87FC17
:103BD0004508AC048315AC1EA01481C5A00E960B3D
:103BE0001924044A901B8038E400C14684484508E3
:103BF000C536210487FC80838361D6AD80B3160B64
:103C000094F5A3248E1BFC384408F2C5A10D400195
:103C100003981E0780008E35E0FC960B1724044A9B
:103C2000941B8434E400C54E80444508C13E87851A
:103C300087FC400101281E0780008455E0FC940B9E
:103C40001724044A921B8434E400C54E804445087E
:103C5000C13E831587FCA814A404A80EA41E192431
:103C600081C5941B920BE400044A84488038C53611
:103C7000C14687FC450883611D0471958093A804A3
:103C800080A3A81EAC1481C5AC0E940B1924044A61
:103C9000961B8038E400C14684484508C5361D049B
:103CA00087FC210483616F3580A31D1480B39504C4
:103CB000A16BE686400A00000E88F0805872719C65
:103CC0004292F1A440A2922B011D44A00E3B4690CB
:103CD0009C0048229C00A14BF18C1E078A2542A221
:103CE00060FC8455F190FD3145474422C82B8E3B42
:103CF0007A0C82218823E400044A84548C44C54E03
:103D0000CD5E87FC450808308335FD516C04822167
:103D10002443FA14484226238823044A8E3B8C48C5
:103D2000E400CD5684584508C5461D2487FCF1A003
:103D300042C2F1AC52824492A413A12BFB841E0711
:103D40008C4584B5E0FC61880224423BFD41F1884A
:103D500044C2FA10463202308233024AE404A834E4
:103D6000E400E94E88444308C93E83B587FC06B0A9
:103D70007E143033EC04901382214212B813FD31CB
:103D80007A8CFA0C4612F1844232E400024A46C2AE
:103D900028580E48F188EC0404208E56E94687FC2A
:103DA0004208986B1D148245C20DEFF87DE88E0B1A
:103DB000001BA3349D24EFFC5C68C29D9D147D38DC
:103DC000A805920B6FF8F1A44E62808B1D24F98830
:103DD0004072000A11045E07F80C1B0EE0FCC000E4
:103DE000002640345E051E08EF8D408A9FFC840D3E
:103DF000E68A0E03A0C5F08850720024190E441BF9
:103E0000E188403BFD21FA08421244321D348023F0
:103E1000FA08E40416200C108613CE8DE404909B5F
:103E20008AC592AB2194941B2324920B9493FC3863
:103E300044088875A30DA10B9B041E0782E58435F9
:103E4000E0FC6400164A961B920B8034A824C12E15
:103E5000E93E87FC4308A8048305A81EA41481B585
:103E6000A40E64000C4A8C1B920B8038A828C12633
:103E7000E93687FC4308F4B5CE9D19049D04C18D35
:103E8000808387D5F2B5820D1BB48E2599CEFC8434
:103E9000BE64828182618AC5CEBD2194969B232413
:103EA00092AB9493941B4408920BA30DFC38011819
:103EB000887580004001E0FC1E07104A8435920B93
:103EC0006400A824901BE93E80344308C12E83057A
:103ED00087FCA414A804A40EA81E0C4A81B5920B5A
:103EE0006400A8288C1BE93680384308C126CE9D83
:103EF00087FC9D04F4B580B31904F2B5C1BDE5207B
:103F00001EF0F67C0C0CC1C3DD9304FC805B400604
:103F1000E2C0D56EFC12D58ED57E405AD59E4206A3
:103F2000E0BCD5AEBC22D5DED5BE426AD5EE404A55
:103F3000A090C0002089ED88401A20010178C1C3FB
:103F4000C000C1C3C1C3F0044B85F0044B95F0041D
:103F50004BA5F0044BB5F0044BC5F0044BD5F00471
:103F60004BE5F0044BF5C21F81A5D51ED51ED51E0D
:103F7000D51ED51ED51ED51ED51EE0D0404A82B511
:103F8000D52EC1C3C1C34B0FC1C34B1FF0044B2F70
:103F9000F0044B3FF0048165F004D51EC21FD51E0E
:103FA000D51E94FED51EDD938101E0041986A3CDB4
:103FB000C1C3184A82A50286E0000215E1944205B9
:103FC000800041FE8000BFFF1FFD0286DD93841448
:103FD000E19441FE84CEFFFF7FFDC1C3DD93FE7CF3
:103FE000040C6C401EF07C0E826BE19841C6020509
:103FF0008014A10BE14802109AE5C0016521BE14AE
:10400000BE1E808BFE1EA30DA204401B9255140001
:10401000FD214E1264044407FA0810039473E4006F
:104020000E6AE6101600A16B140B140000E51615BD
:10403000EC048D1BE08022148AF5EC080000F88067
:104040001625500583AB020600045615C000A12BAF
:104050005880101588258331618800342294801F90
:10406000E8808265A11BE18C10152C14801F82054D
:10407000A11B4408820B8175FC38FC384408FC0401
:104080008145FC384408819BA204FE048835910BCD
:1040900080044E6886B53FFF47E5EC1016B0A10BD3
:1040A0008101A2048625A10B2004A10B82B5FE7418
:1040B0008465900B1C0E680140089C84C000E87564
:1040C000A18B7E8E8195E6D5A10BBE048155A10BF7
:1040D0008004A0F1E4F5F67C0C0CC1C3DD93E10093
:1040E000000CFA00004C8301001BEFFC76088105F0
:1040F000C143FA8002140006E11B00069422DD93FE
:10410000D462F800040C6C501EF0E47C034A826B0D
:104110003C5EFC1EBE5E42668E050C4AF002063412
:10412000647C5E15FA804A0E00045E259FFC061A28
:1041300000081E25E400442280045E2598141E25F4
:1041400080001E5580004A5080084422907C5E25E5
:1041500099941E2580044220800418149C0040007D
:104160003CB5BC341814024400D5E11BFA80DC3C99
:1041700018C4E2320066420E28F1C01060010C0C37
:104180008C2B8775F000017E28F10C0CFFF8DD9375
:10419000F0006C401EF0E47C014ABE2EBC2E8685E9
:1041A000FC2EE47C000A440684453E2EF002FC1EF0
:1041B000C121841FBE14BC14BC1EBE29FC24BE1E1B
:1041C000A41F0006BE148155E206F87E4006F0FEEC
:1041D00000065D9381017FE5A0F1FFF801AEE2C02A
:1041E000041C041FC111F07C4400021CA41FDD93B9
:1041F000E340E47C040A408804240000060E0830F2
:104200008010481204105802D08802067190FFFCFA
:10421000600000C483C7020FF080700142C0610BD0
:10422000DFFC73FD40C04807C00300A5D0175D93B5
:10423000A20FFFF8018E60010286A20FF80040066F
:10424000900EA10DFC12400682C5A10DFC1A40067D
:1042500082150206FC0AC02060018075830DF3728E
:10426000004681015D93FA7C040CEC301EF0864B15
:10427000088B81713E2E405A006B7C7EE506425AC7
:104280008131882B6586EFF84F4867D1000044865E
:1042900040014212E03C8131729CEFF84548000039
:1042A00017A4C0046401729C42121974D707E0D4A9
:1042B0001614FF0120BF001401BB57FEE1ACA10B97
:1042C0001FFC60381409DFFC57FE81111B940AF0B3
:1042D0001C241504E420BE44A10B8008001B061416
:1042E0008004901B7B00E80043C8FC04BC0EE0186F
:1042F0000E496834AA245082A01B8E0B7B90683430
:1043000056C83E0E8C4B850581A10E29D90A42BAAA
:10431000E01C48BAE502062065828301E41C020322
:10432000A70F4242811190217284EFF850287FFD3F
:1043300045FE82A1403F41FEC50D003F1FFD41FEED
:10434000A11BC03F1FFD91ADE50EBE04F8151E0573
:10435000A10B98F10000F27C0C0CC1C3DD935896C0
:10436000211B0214E008180640AC442AC000A14BEF
:1043700041060000020680085896FF11826502443B
:10438000023D6037E10491800214421A8613202313
:10439000E0928223980BDD93942EFA04044C811151
:1043A000026B6000450666D88C0B81716FF8660061
:1043B0000060E4C00260912101A50420067E4073E4
:1043C000EC044275F820C17CF008FCF5A12B7FF4C9
:1043D000410EE038030660280506FFD4470E486208
:1043E00081F500007180927EEC204862107E107E84
:1043F000F088F084486282111076870B882141F69C
:10440000FC358111600C6F404C016744006063987B
:10441000C0038F216FF86561006002604008C0032F
:10442000676105060195067EE008EC040420F008AB
:104430004275A12BC17C0C4CFE35DD93F2046FD18B
:104440000019A11BC00500098245C006602DF3F0CC
:104450004000000CA90BDD93E20081015D93F08028
:104460004412EC7004298405A12BE03C0229E68269
:10447000402A02098013C0056B71EC140000E408A7
:1044800000CAE200000C5D93DD93C1C38101F80412
:10449000040C603C0239677002100A04C003042057
:1044A000608C0455E64058227C14463AF0948171A1
:1044B00066820834B264C2376088FC1002454862E4
:1044C00088538613729C0804324E305EE0880213D3
:1044D000844340016C01083580238233E200E2000E
:1044E0004835EC000409440182010C0CEC00DD931A
:1044F000F004FE04040C4822086B214BF98C08657B
:104500008A7BE008489661840824E0FC0A340A3477
:104510002A4F8803E1846FF47168F2844252641C6C
:10452000434A421A8141416AE01C420AE418421A95
:10453000E580420AE1880904ED80DC004C00DC00E3
:104540004E10806E827E0C0C880BDD93F604F80012
:10455000044C67FD00258151400186448434E018F5
:1045600002C56FC90021843340056050026BF2948C
:1045700048426FCD00010255C00584C3601C8261B2
:10458000064E42C5843E80536018E01C4255E05000
:104590004263F0000C4CC1C3DD93603C0239C84457
:1045A00081C1463ACA54C437E6820635823386430F
:1045B000E7DC72B04652CA3E80130201C84E043591
:1045C000EA708033E020E0204435E054043BEB7097
:1045D0000201E0240415443382318013E054E024C6
:1045E0004415C1C3DD93E03C0239E058044BE68238
:1045F000403AE01404358013C407E7DC0205E010FC
:104600000415810100137280403244058241441533
:10461000E0144443E010DD93E058605800290A3963
:10462000845B0A49EF400239EF44400160514A215E
:10463000C72DC82D4F406F484A21E4A008004F44C1
:104640004A210035C23786136020603002C367609C
:104650000A500213C003980BE0C0E0003508FA7C52
:10466000040CEC901EF0889B23040206091E0ACB62
:10467000E004FC0E8161FE0EA104E0380409516ED5
:104680008155EC040210A11BF16C7E44FE7503C140
:104690008161E00802061630200B106EE64092CED3
:1046A0008171D06ED26E101EFC4492CE8111BE1E5E
:1046B000D26E0C30506EC002664100200F0EC00357
:1046C000657100300B0EC00366418B358D0EAE0355
:1046D0008D04A1AB80A889048E850009915EC1ADCF
:1046E000E0107C1482A5E00800468301040E8B04D0
:1046F000860E8008AE038101460E2C04C40EE184B0
:1047000010A481212E149003813172884212619885
:10471000942B45FEEFF4CFFF7FFDFF21450D1FFDDC
:1047200041FEA11B0FFF1FFD41FEA40ECFFF9154C0
:104730009804040E040D1084F80080839180E0AA90
:10474000408AFA08400200020305C07F6BFD8331F6
:104750007E248A3E883EAE038B044A0E8008480EB3
:104760008101A43E81010E70550C0861EC0490B1EA
:1047700088918F0B8F04FE04EA95A10B8004C0087A
:104780004096C0045E05C8F13E04F27C0C0CC1C327
:10479000DD93FA3C040C846B027B60500E2B0EAB55
:1047A00081810E9BE054188EE0589A8EA12B4C23E9
:1047B000D88E4CA3E0184C93E01C84C5E02006245E
:1047C0001C049E14E184813106036FF45BC8F2A0DF
:1047D000421267FD008A41FEC7FF00011FFD41FE36
:1047E000A11BC0011FFD140A980E04A4680084C513
:1047F000FB8006245C04DE14E184813106036FF43F
:104800005A28F2A0421267FD008A41FEC7FF00014C
:104810001FFD41FEA11BC0011FFD120A9A0E049448
:1048200068008605FB8060100E05E1840624E01414
:104830000E15813106036FF45868F2A0421267FD2D
:10484000008A41FEC7FF00011FFD41FEA11BC00100
:104850001FFD0C0CD80EDD93F23CF804040C843BD5
:10486000010146018A068E06F008020B8C06A10B98
:10487000E05002C58845060460187F51E184866BCC
:10488000A64B4C408ACD18639C00FFF8180EE082BE
:104890004E6AE01C02654A720A6D4640FA300A52BE
:1048A0001C000856E9FC403A8C334002E0820002CA
:1048B000FA308A06E9FCE054020B8845A10B60201F
:1048C00002C5E1840604A64B7F518ACD866B9C000D
:1048D0004C40602402C54C6A9863020E60828ACD07
:1048E000FFF81C004640FA044C620A621833403A52
:1048F000E9FCC856E082FA044002E9FC00020C0C14
:10490000CA06DD93F004F80C044C603804096640D4
:1049100004301841C0030515FF31F800180EA16BD3
:104920008868906A84E5848294720425A16BF19C66
:104930004E821064067D5877E184918010844C8A01
:104940008E834C62E09A0E62FA30C07F6BFD0000ED
:10495000947C84416C0482210451F835A10BF00C45
:104960000C4CC1C3DD93F81C040C8904847A0489BF
:10497000861AD658E010807C8898C8C88A7804299E
:10498000CA68021CE014E1840284601040510A24C9
:104990009813C217618402100C534011EC04C257E3
:1049A000601C6C0402504011C287C227602060283E
:1049B0004021664004400619C00381316038E0148C
:1049C0004091E0184071E024408149488195EC0411
:1049D0000A30EC0402104640C95DA11B9C00403126
:1049E000FCF58101602CF01C0C0CC1C3DD93FA7C3A
:1049F000040CEC501EF0886B1984829B067B84AB00
:104A0000095E6491168002804001C00166D1008079
:104A10003E1EC001669108803C0E121BE4900C3BC8
:104A20008E2B61D8965BA10BEFFC048086B58C1BA6
:104A30006430EFFC6B0814807EAE0C1BE48070D8F1
:104A4000942B121BEFFC09448E2B75D88C3B965B84
:104A50006FFC921B3C8E8E3B7E24945B0C4BEFFCD8
:104A60007848A8F18101F27C0C0CC1C3DD93F08081
:104A70004622EC70063986A5A13BE03C0439E6826B
:104A8000403AF08046226B7106390630C005E23D9F
:104A9000EC14C207841504038023C00263B9861294
:104AA0008422411A850D400AE004000CE184DD9364
:104AB000E20081015D93FA7C040CEC701EF08161D0
:104AC0001D04888B7C5E901B7E1E00063E0E8B6E46
:104AD000E004E03804B98145896E0000456EA10B01
:104AE000EC047C04FE951220874140036571E6408A
:104AF000143066410E30806EC003C26E824E0006D6
:104B0000406EBE14E008864E840EC46EC66E9C28AD
:104B100085E586A5A12B0009FE04C12DE0103E14F9
:104B20008245E00800468701040EA408860EC60EE2
:104B3000C46E06F02A142804E4407FFD49FE3C3E82
:104B4000CFFF4D78813181516FFC819589048301BC
:104B50007C24880E8711A4188A1ECA1EC86E16B03F
:104B6000610E0291EC04827190A1F455A1BBB8F1E1
:104B70007C04A10B8004C0084C960C0C8C0BDD93BC
:104B8000F27CFA7C040CEC301EF0886B0A9B80BB34
:104B9000067B64D10090848B4001089002AB3C0EF0
:104BA000E49064910A900E2BC00178588C3BA10BC5
:104BB000EFFC98F180A5F27C0C0C0490DD93960B31
:104BC00064306FFC5E887C8E8C1BE48010908C1BA4
:104BD000160B6FFC64483C9E902B7C24960B0E3B7E
:104BE000941B6C188C4B905B6FFC0C0C98F1DD9354
:104BF000F27CFA1C044C829B048B867B086B6F480A
:104C00001019676004801209C0038C3B6010E8042F
:104C10005948E0100E05E0340E1BEF481029E01053
:104C20001239E08C0E498101180E4C21D81C4C31F0
:104C3000E0184C41E01C0C4CE020DD93F21CFA7CA7
:104C4000044C81B113A46E4002221174888B285E3B
:104C5000866B0FBE81918155812182214134FA24D6
:104C60005232FE75C32D41FEA09D803F1FFD800086
:104C7000540506F09005920B6470902B0A1BE830E7
:104C80005A088E15A10B901B120B68305D08A10B02
:104C90008E2B8F848C3554B5A18B409600008A45AD
:104CA0008008981A9C04C7079A2A8095C30D810131
:104CB000440D401288250406708842B2FF408131BD
:104CC00072ACEFF07D6860FC0414240FC30701315F
:104CD000C3177378902B0404EFF0FF3160A0D01756
:104CE0007107A20F072B1FFC45FE45FEA10BA82E46
:104CF000DFFC0C4C8101DD93F27CF81C040C840376
:104D00000413618A400A421A82110420618A18043D
:104D1000EC040C04608808C5E08C4E527C300A65B7
:104D2000F098850D7C18CAC79E8412C4A6C38CC394
:104D3000617CF2A04C920C041E6E1CCEE0840CCB65
:104D40008A630006690000008000830BC4044CC322
:104D500082C1F6D5E900F01C0C0CC1C3DD93F81C30
:104D6000040C61FC182404C3A20303C786030BC40C
:104D700081814C0AB8030034618E0904E088F08018
:104D80004E420C13948E421AC4678863618EB08EB3
:104D9000808EC4170223618E462AF0844442424228
:104DA000C4370670708C827BEC101494D9841093F5
:104DB000C66DDC004C40DD84949EC67D30944E4030
:104DC0001093309EDC00FC35856BC9C48054985329
:104DD000C62D4440005E832BDC000C0CFE35DD93B9
:104DE000F01CFE7C040CEC401EF04C4208134C6A94
:104DF000F080821161926192421AE0881844D607CD
:104E00007E3EC46719344FFE4417C0017FFD5252E5
:104E10000AC33E3EF084F098545206C00C7E7C5E7D
:104E2000EC10FCA8160481C1014181110181E964E3
:104E300083F5C6AD7E041EA5CA674E624008217D7B
:104E4000F1800C068E6BA02D40009C004C70617CA4
:104E50000E64406A8C435872642E4C6AF2B08083B0
:104E6000E4AE72844262640016B093ABC00818CA04
:104E7000F835181AE000082AE000420AE000421A59
:104E8000E580420AE1880845ED808008409661840B
:104E90000044E0FC04C404C4240F1003E184421263
:104EA000983B882B7288EFF05888E000034A021A7A
:104EB0003E14006AE000420AE000421AE580420A1D
:104EC000E1880006ED80040EC000A0F18101F67CAF
:104ED0000C0CC1C3DD93F87C040C4C520D040C2364
:104EE000F080F0944E126196582AEC041050C4875A
:104EF000027118338F24463AC4C7420261964C6A45
:104F0000F0B0829B619661964E7AC4378151708C65
:104F10005802F0A04602E5A481659453C69DDC00CA
:104F20005200FE55999BA34D4467C47704638000EB
:104F30000C9552920265FF9190946024491A0C9549
:104F40008A9B5292A000189EB1940483847383D5E7
:104F5000FF91C5B4F1A44AA28AA30CA5F1AC024505
:104F60008000909454A26024491A0CA58AAB54A2E4
:104F7000A00018AEB194E40C591A3C015800431A31
:104F800040004200E40CC0003C0164101460551A5B
:104F9000846B4CA0E4204C1ABC003DB8E01CC3FF5D
:104FA0003FFD0C0C8101DD93F07CFA7C040CEC30AD
:104FB0001EF0CA37008BE1FC148400A490A3803358
:104FC000E10460A2403AE17C0654617C180456C2B8
:104FD000AA034602F38C1734F9AC41FEA13B000151
:104FE0001FFD80084E960A449005A443617C617CB5
:104FF00018244A52FF21817173B04472045D3E1E31
:10500000F180124480CBE05761C01C005820F3AC03
:105010004272E0477C3E608406B4E1FC0C0460848C
:1050200004045610B25F40C21C0042B2F090AC3F84
:105030007294EFF04C2802A495B4D6B77C00A283FA
:105040003E14A38B7C3404010000D61780040204B4
:105050008203961FE17C401A80130002E1AE000239
:10506000E000C7FF6BFD8E0B0C0E0C0C98F1DD936E
:10507000F27CFA7C040CEC501EF0A4131B74A40305
:10508000093E8A9B1F6446721D84563AF088882B1D
:10509000619E7C4E99A416138E4B7E1E960321B4FE
:1050A000A0133C6E931DC404121070A4420202109F
:1050B000943B905B6C04EFFC69688615A10B943BF4
:1050C0007E148E4B3CBE905B7C24E40400106FFC8D
:1050D00068A8A10BB20318048275400AD677980E0F
:1050E000E11E400AAC042C0EE11E98248101C22D61
:1050F000AC1440004C15DC004220C0005625C00016
:105100000C3544300934A8F1DC004C35C62D161599
:10511000C000C71DC000C0005635F27C0C0CC1C3D6
:10512000DD93FA7C040CECF01EF0849B111E934E70
:10513000955E973E8F0EB3148C08191EA10B9D1E11
:10514000811184459B1EE004000285B381138BF31B
:105150009904E5800000F8604015F83040154015CE
:10516000C11E4015E02C9704E05CA10B820831B40D
:10517000A225AF8481711324ADA4E08400747C0067
:105180000443F0804222E09002238245844D06745D
:1051900019048033E0880255861B8404F03019041A
:1051A00085F5E08806744442092E0D7EFA08003326
:1051B0008221061BA823E6400C30F030025502C5C0
:1051C00084040513E060EC0404408B4E8533E80052
:1051D000313C70884EA282718221E1AA4E7A10453C
:1051E000C4778803FC1CE444840E8C5E8853FC1C4A
:1051F000164598CE88C38B448D7420518924E0884D
:105200000C7408444B570C5EFB801E55CA0D4002BF
:1052100040300674D19482214088FA8018A4D0943A
:10522000463240604605F190462206340F040009DC
:10523000FB001904E0308063A10BE6400060C00071
:105240000025800004060000402580000406A60416
:10525000914450588414E4D008F008F07C4EBE4EBF
:10526000E4E09544BCCEE80062088271210B8034F2
:105270001E1580C04C1586189714DED5837D020B51
:10528000801B0C0CF8F1DD93F27CFA7C040CEDF041
:105290001EF01E05A90E972EE0ACE0B41E251E05DB
:1052A0009D0E195EE0A0E64018209951151E1E05BE
:1052B000A30E1E15E09C1E65E0B0130EE0A81EB5FF
:1052C00081011E75E0A4BD0EE098B90EBB0EB50EAF
:1052D000B70EB10EB30E8145AF0E0A50710CA15B33
:1052E000EC042954FE95E640142012101B7E256E16
:1052F000E4C0E5800C40650118500A504002C0042B
:105300006601101021CE1F5EE640E00844968171D0
:10531000273E9395ABBE020AA414C7FF63FDA10B01
:105320008A0525B486D5AD2E963BF8C00C0378309F
:105330000C13A324964B6B58A954A10BE8000C0343
:1053400082B5812178C078300C13AB34964B6A98C3
:10535000A154A10BE800A7348445AD24ABB4E2A46A
:10536000040A0FFC43F68008449680005413889189
:105370000271846104A184810D8581212BB4F8C060
:105380000C03F8300C13963B1D4468B89F54273427
:10539000E800AD24A10B2002F895E5A004F006F08A
:1053A00018123E2EE5D0E5B00AF09603113EE1AEAC
:1053B000400ABC3E9BB42B34AD0EA144962BEFFCAF
:1053C0004D0800F018123E0EE5C0E5E00AF0962BFD
:1053D0001104A944AB342D04BC0E4C1886BB9704B1
:1053E000EFFCE03000098405A10B657000F0E5805A
:1053F00004F00AF018123E0EE590BC2E963B9B245A
:10540000AD044AD89F44BD04EFFC99249514BB0415
:10541000AD0EB534B3B4841A910E8B2E8DAEAF049D
:105420009324892EB1C4FCBEFE0EBECEABB4B944EB
:10543000BC3E9B04B7549134AD24E8147E0881012E
:10544000002BF1D5A734837D8E181EF0D8D50C0C17
:10545000E5F0DD93F27CFA7C040CEC501EF0828BBC
:105460003E2E0050009B1911E760818581217860F4
:105470004023EC040210F8304023A11BC12C0C5037
:10548000FE150E4067607C3EE4C0BEB481A19C0462
:1054900085D563FD000A88A5C7FF78300E15A024C6
:1054A000960BE042A43A4298E458090EE8009C1496
:1054B000960BA43AA024E458E042E8004208960B78
:1054C0007E0EE0300E15A43AA024E458E042E80035
:1054D0004168FC34FE14F8604C13980C8914F830C1
:1054E0004C13846102A18E088871F45581ADA8F136
:1054F0000101F27C0C0CC1C3DD93180E2413441A75
:10550000F000401AE4820224E40282CFE17C8101AF
:1055100000C3F2844222640104C04212C080181405
:10552000F280E1C7E17C42129823E1277280A22F2A
:10553000E017080E0823422AFF00442AE48E0614CE
:10554000E40E864FE17C421288230420F28CC008CE
:105550006401F2804212E17C06148623E9377280EE
:105560004212E817D927020E222F4222F800021217
:10557000FA04C07F6BFD4010A11DA05D1C0040100F
:105580005D93C1C39C00FA3C04CC886B008B602CFB
:10559000100901A183412034C827214F867B0FAE1B
:1055A000820B0DAE841B4E78882B58AEE82C1AAEB9
:1055B000809BE47004F0921B0E0BE82C538884351A
:1055C000A10B06F00F042214E460580E922B4F78C2
:1055D0008E0BA10BE82C80181E0500044C058000E2
:1055E0000006F23C0CCCC1C3DD93FA7C040CEC3019
:1055F0001EF0889B007B602C0E090E29846B835162
:10560000603060100E4B215F81B11C3486AB7CBED4
:10561000820BE8880454881B3EBEE82C4AE80090C0
:10562000008B0195E4C041BE9911EC040210F834DE
:1056300040B5E02C40B5FE15A11B658014A005C542
:10564000E091A10B8101280488D5E42004F0682CA6
:105650004EE8A10B901B7C0486D5E41006F0A40E46
:10566000902B9E14A804E82C4AC88475A10B06F060
:105670003E04902BE410F8305205E060140549F820
:105680009E14A10BE82C80041E05003052058000FA
:10569000000688A102B19A188891F49583BD0C0C7C
:1056A00098F1DD93F27CFA7C044C847B1124889B76
:1056B00015A4FF8113B441F6A12B4C960FFC8A056B
:1056C0008008442A2B3F463AE68A8161668E423A38
:1056D0008F1E463AE502002465828203E1847298B7
:1056E000423262F881310F24EFEC41FE910BA11B95
:1056F0001FFC5FFC41FE0294A19B81814184509C70
:105700004212501A847380734026408A8E83AC8E76
:10571000F00A8C0B280EF27C0C4CC1C3DD93E682A0
:10572000401A64010000DF07C0406FFD00025D9376
:10573000C03FFB800004FE7C040CEC601EF0827B0A
:10574000049B8161005B8111120B81B101A1030AED
:1057500081C58275E23CF0080025F80400455642F8
:1057600084A3821172ACFC958F1D6000174AE184FE
:1057700000A46000161AE0FC02B46000146A7E0EF9
:10578000A20FE580420A6188421AE18400B4422AED
:105790007C0E3E3EED80E43010305E27895E89A5A8
:1057A000E05C601C4CCA440A8101400AE1808EE53D
:1057B000E99C8101262404CAA414041AE000022AE8
:1057C000E000420AE000421AE5801E27E188420A12
:1057D000E05C8AA5ED80647C0B0A0050823B462089
:1057E0006C8044529C0002067B800022C000202373
:1057F000EC7CEF8008146C000A047E04A13F485240
:10580000A11F04227890A83FEC0482037C14942BFF
:10581000253F728442325958963B0954EFEC67FD9C
:10582000008A41F6C0FFA11B0FFCCFFC41F682614C
:10583000610C0C0A9091ECB5E240B0F13E04E01826
:105840004071E01C4051F67C0C0CC1C3DD93F800A4
:10585000044C02100A280814EC04E03161FC834176
:105860000813831703A57830065BEC0404208260DC
:1058700080C046C38AC3CD5AF8600AC40A6318645C
:10588000FB004A427B004663F1949853602CFB1462
:105890004A12E05C4653F8F5A12B0C4C8101DD93D4
:1058A000F000F804040C60880C3401458A7BF09801
:1058B0005852D97DDD2E0613FED5440A8603821187
:1058C000618E618E461AF09840420C34C4274242E1
:1058D00060884652F088444270888195F098C11DD6
:1058E000C5644240CD6ED93D1C009C004650FCF57D
:1058F000851B0C0C8101DD93F004FA7C040CEC7028
:105900001EF00034008B0603E1FC1F1482BB0D3E29
:1059100083071D348A6B2374845B21A4A02B3E1E55
:10592000829B0B4E900B7E2E8141093EAA233C3E6A
:10593000961B7C5E8A3B6CF88C5BA10BEFF809042C
:1059400086753EAE81417E24961B3C0E8C5B8D3469
:10595000900BEFF86C2882D5A10B81410D24961B8A
:105960007E048C5B3E7E0904FC343C0E80236B3845
:10597000900B161BEFF80B64968D090E8CBB0A5525
:10598000944B2594920BFA204212B0138211A71463
:10599000831383B38D1EE80031EC70A046B2463A03
:1059A000801B828161AE00A5C437880B7C0C7C0C07
:1059B0000855F08C4492FC0C0EC5719848A20A431D
:1059C0008CA33843B453084E98530D14804B823344
:1059D000820B09048C5E0C0CB8F1DD93F27CFA7C2E
:1059E000040CECD01EF080BB2904828B2F7443FE84
:1059F000134EC0017FFD8A6B0F2EB144B324810189
:105A00007E0E9C0E913E970E990E41F6150E8B4E12
:105A1000E00C8D2E900CAD94881E91A4AB54406286
:105A2000897E420AF0ACC417E19AFC040A2584A5D9
:105A3000A12B84E5A12DFC0412158E95A11D400A11
:105A40008201C407E19AFC000A158C95A11D7C0017
:105A50001205820DFF1181A58AF5FC0412058A4505
:105A6000A10B7C041205820DFF11030188A5E4B08F
:105A700002F08A7B1C0E0AF00B04142BE4C000BC5D
:105A80008C3BE4A000F0960B3E0E8F14BC1E5678A3
:105A9000FE440D04EFF89924961B3E0E973495446E
:105AA000940B9354BC6EEFF868288E5B0974E2A4E3
:105AB000000A8101807582B19C0E808591BDA10B89
:105AC0009C040101EAE50C0CE8F1DD93F27CFA7C20
:105AD000044C827B006B60140C19E00040C6947586
:105AE000F41DE0180C2992F5F02DE686502AE50009
:105AF000110A1921925566588E0B8C1B6FEC64307D
:105B00000070E0040206819101550210419CA11B26
:105B1000EC040060FE9581B1649081110195E5006F
:105B2000028A412480E556228211D11DFAAC00B4CC
:105B3000FE15D8B761D098710F0E81A1486181011F
:105B400003D540961824A12BE0080F148485E18426
:105B50000024813116036FE87F68F2A4421267FDCA
:105B6000008A41F6C0FFA11B0FFCCFFC41F681016A
:105B70001C0C847102A1D1AD8861150A80C58075A5
:105B8000E4FCF6E5A10BF27C0C4CC1C3DD93FA7C7E
:105B9000040CECF01EF0866B04886010021900A95A
:105BA0008191060E6010C00072C088BB1D9E429697
:105BB000091EC00167B98D1E8004130E8F1E63215C
:105BC0004156170EC001911E840B1B1E951E993E57
:105BD0008C1BE80048C86C0400A0E00842C674189A
:105BE000010A0B0E8101808800A4046002F0E0101D
:105BF000101A1C0002058000020600145E050B044A
:105C0000B18BED80420AC00842C642C6A10BE5AD89
:105C100000088A95FE1EA10BFE0409148A350E0B9E
:105C2000907B4998962B18B1E80004068111960BD9
:105C30006008EFEC6288E69E4E7A00068375E7AD59
:105C4000610084159D0E00F018341A44E4E0E1EC84
:105C50000B76901B3E0E89248B04920B3C0EE800C1
:105C600040C86D0C9D04937B82917E04FA350C0C28
:105C7000F8F1DD93F27CF87C040C61064E0AE088B2
:105C800012246006500A0F4488CB4E9A866B81110D
:105C9000669EE6A2509A8E630D34402A10C3101EF1
:105CA000E68AF0A44E62650E443AF0A450C2E58E36
:105CB000463A8FAD81C546AA56AAC41014A0D0A4F6
:105CC00056B242127E3588C1D0AC52CA91CD5460D2
:105CD00046B2FC15DC00E1841804425A02C340CAF3
:105CE000E6960C0CE0028135F07CC1C38B45FA00CE
:105CF000040C480A086B400AE5060A24658602443B
:105D0000E184E84761B018346807201FE184E0FCB3
:105D100000344042A05F7158F09442126FE80406CC
:105D2000F2B0404060018403FF318131070B728C77
:105D300042129FFC41FE41FEA11B400ADFFC02040F
:105D4000F00A8413E184E002401A8101180EF20087
:105D50000C0CC1C3DD9360144401083C81310A3C42
:105D6000AF41FC00061460184401E41C0030601CC4
:105D70004401EC040030602044014441C217830117
:105D80006010E0244411E0284411E02C4401C1C318
:105D9000DD93042E0038A13BFFFC8208844582E598
:105DA000A10B7180482226239001400090314001D0
:105DB00073C173C146300623C00181358803FFFCDF
:105DC000002E860E842EC1C3DD93FA7C040CEC50A9
:105DD0001EF0867B090E61840014E0AC0674886BAB
:105DE000202384138623E10E401AE10E422AE1ACFF
:105DF0000404611E562AE1AC0414E11E502AE40496
:105E000004B0611E542AE08004060684222306237F
:105E1000E0ACF184420204B47C2E7E1EE0AC3E0E67
:105E2000A40385B5909B8235919BE02C521AA0105B
:105E30001E05A00C1E15A0000168E020521AA0004B
:105E40000088521A090400F8E02CC00020018010DC
:105E50001E0580081E15179B80C580B58101BE14E4
:105E60008904E8004B08608802940C2582918C1309
:105E70007C04E11E529A842E8023F4B5959BA8F1F0
:105E80000101F27C0C0CC1C3DD93FA1C044C847B31
:105E9000028B866B009B00061C14E024E0804338D4
:105EA000A434A044E8009E14980E880B602442B8E5
:105EB000A4349A0EE800F21C0C4CC1C3DD93FA3CEA
:105EC000040C828B047B60240E1910498321866B9D
:105ED000602460280E591C04809B2234A32FE0907C
:105EE0000244682844A8E89414249C24A41422346E
:105EF000980E040BCF1743F8942B1A0EE8280C0CBD
:105F00008101DD93F23CFA0C040C403A006B027BF9
:105F1000E50AE58A423A00000181C00167D172A01A
:105F20004212E03C44866FE860E87F218131850BB6
:105F300081311FFC41FE41FEA11B427ADFFC447A05
:105F4000E502006465828203E09C72A04222E0A028
:105F50000464EFE85F887FFD45FEC50DC03F1FFD6F
:105F600041FEA11B003F1FFD41FE0C0CC03FDD9315
:105F7000F20CA11B005B60084096640018500006FC
:105F8000C080070A400040C6E640190A4000C0FF32
:105F900067FCC00040C65C08A10B1814DA00A15DC4
:105FA00061FCE05702C3D63703C7D18018C442CA88
:105FB0008AC38413E086E0000212E10E421ADD93E8
:105FC000901E6506440A420A81310020E586C0041D
:105FD0006401F28C42125C08EE1D41FE5A00C03F83
:105FE0001FFCD7076A17A20F5D93FA7C040CEC70B4
:105FF0001EF081617E3E88BB092EE03404098D6E5F
:10600000FC1EE80D3E0E602402A9E00040C6150A01
:10601000981596B5E6408904FC147518FE340410F2
:106020006FFCA10BE4307C0494958914963B72D8E4
:10603000FE2400B0EFFC81116420551D81751625EA
:10604000812182114004020AC12EFE15E24089110D
:106050007E04B001017578104065EC040210A11BAC
:10606000C16E0974FE557E8490B1BCBE8101C071C1
:106070007C94B08105B58A75A10B906B0B6E8984F9
:10608000FE14F8100E25A004861473D8A43422241C
:10609000EFFC1C0480BBE46008F0601012157698D9
:1060A000943B8C8B6FFC8295A10B781050B58D249E
:1060B000943B8904A02E0014BC446878960B0B64B2
:1060C000EFFC88818871BE148261F4B5C36D0C0C3D
:1060D000B8F1DD93F27CFA7C040CEC301EF0806B9E
:1060E000064A04C9840A4C45E0C00249EDAC4C059F
:1060F000E020C40AEDA8EE244C45E0CC0449EDB004
:106100004C05E0C80409E0C40479EDC04C45E0D07A
:106110000441EDBC4C05E02C0405EDB44CC5EDB8D4
:106120004C75E0D404C1E0D80471EDC44C45E0E006
:106130000449EE284C05E0DC0401EDC84CC5EDCC6B
:106140004C75EDD44C45E0F00449E0E404C9E0ECC2
:106150000479EDD04C05E0E80409EDE44C45EDD8B8
:106160004CC5EDE04C758AC48844CA84C874E0F814
:106170000491E0FC04A16DDC4C054CC581014C751B
:10618000EDF04C85EDF44C95EDF84CA5EE484C0542
:10619000EE4C4C45EDE80645EDEC04C5E0340475E5
:1061A000E0104C45E0140645EE500485E0380495B7
:1061B000E01804A5E01C4CC5E0204C75EE704C9531
:1061C000EE744CA5EE7C83A16E80EE544C45EE78C7
:1061D0004C8504C58C44A194E024EE844C45A488ED
:1061E0008E444C459B74CC44EE884C45A7B4CE44B9
:1061F000EE8CEE904C45E0100645EE944C45E014D4
:106200000645EE984C45E0180645EE9C4C45E01CD2
:106210000645EEA04C45E0200645EEA44C45E024A2
:106220000645EEA84C45E0280645EEAC4C45E02C72
:106230000645EEB04C45E0300635EEB84CC54C3561
:1062400099C49734EEB46D884CC57FFC59E69F44E1
:10625000C020ED844C354C85C8349D84ED806D8C18
:106260004C4567FC0430582DC0FFE0081806017C3F
:1062700018342344FF2181C018C46D944C7590B02C
:106280004632183425344C8581400E606D90C00D27
:106290006600EE344C55EE044C259534FC3E6DA45E
:1062A0004CC5FFF459CE6D9C4C45FFF8088E0C850B
:1062B000994B5082CD9C0840519050A1CC04FCF5E4
:1062C000C0006E3C4C05670000604C05C0060060D5
:1062D0006D98C00265006E204C35E080068A66012C
:1062E000066050C640044C65E0004C05EDA04C35FE
:1062F000EE2C4C25EE308875EE14EDF80C35EE28BA
:106300000C4586B5874DEDB40C25E4080020E17CF2
